:020000040800F2
:10000000B0040020A10100086F150008F3140008D7
:100010006D150008AD020008091D00080000000071
:100020000000000000000000000000001D17000894
:10003000AF02000800000000711500081F1700083B
:10004000BB010008BB010008BB010008BB010008A0
:10005000BB010008BB010008BB010008BB01000890
:10006000BB010008BB010008BB010008BB01000880
:10007000BB010008BB010008BB010008BB01000870
:10008000BB010008BB010008BB010008BB01000860
:10009000BB010008BB010008BB010008BB01000850
:1000A000BB010008BB010008BB010008BB01000840
:1000B000BB0100080000000000000000BB010008B8
:1000C000BB010008BB010008BB010008BB01000820
:1000D000BB010008FD1C0008BB010008BB010008B3
:1000E000BB010008BB010008000000000000000088
:1000F0000000000000000000000000000000000000
:1001000000000000BB01000800000000BB01000867
:100110000000000000000000BB010008BB01000857
:10012000BB010008BB010008BB010008BB010008BF
:10013000BB010008000000000000000000000000FB
:10014000BB010008BB010008BB0100080000000063
:10015000BB010008BB010008BB010008BB0100088F
:10016000BB010008BB010008BB0100080000000043
:10017000BB010008BB0100080000000000000000F7
:10018000BB010008BB010008BB010008DFF80CD070
:1001900000F07AF800480047491D0008B00400202C
:1001A0000648804706480047FEE7FEE7FEE7FEE711
:1001B000FEE7FEE7FEE7FEE7FEE7FEE78D17000835
:1001C0008D0100082DE9F05F0546002092469B4610
:1001D00088460646814640241BE02846414647465D
:1001E000224600F041F853465A46C01A914110D3B6
:1001F00011461846224600F028F82D1A67EB010830
:100200004F4622460120002100F01FF817EB00099D
:100210004E41201EA4F10104DFDC484631462A4647
:100220004346BDE8F09FD2B201E000F8012B491E21
:10023000FBD270470022F6E710B513460A46044683
:100240001946FFF7F0FF204610BD202A04DB203AB4
:1002500000FA02F1002070479140C2F1200320FA19
:1002600003F3194390407047202A04DB203A21FA17
:1002700002F00021704721FA02F3D040C2F12002BF
:100280009140084319467047064C074D06E0E06868
:1002900040F0010394E8070098471034AC42F6D3CD
:1002A000FFF778FFC01D0008E01D0008FEE770475B
:1002B000704710B590F825100024022903D00421BE
:1002C000C16301241AE001680A6822F00E020A6084
:1002D00001680A6822F001020A6090F84410036C79
:1002E00001F01C02012101FA02F25A6080F8251087
:1002F000002180F82410816B01B18847204610BD91
:100300002DE9FC4FDFF894A1002301250AF1040B2D
:1003100003244FF00F0C0BF1040EB8E005FA03F6BE
:1003200032406FD04F68012F05D0022F03D0112F1C
:1003300001D0122F17D1D0F808905F0004FA07F807
:1003400029EA08090097D1F80C8008FA07F848EA6A
:100350000908C0F808804768B7430E79C6F300164D
:100360009E403E434660C6684FEA430804FA08F7D9
:10037000BE4301978F6807FA08F73743C7604E6896
:10038000022E01D0122E13D1DE0800EB8606009655
:10039000366A5F07FF0E0CFA07F926EA0906D1F85C
:1003A000109009FA07F949EA0609009EC6F820905C
:1003B0000668019FBE430F7907F0030707FA08F7A5
:1003C000374307604E68F60060D5354E376E47F00C
:1003D00001073766366E23F0030706F00106009624
:1003E000304E3E44B146B6689F074FEA17780CFA84
:1003F00008F7BE43B0F1904F05D02B4FB84204D15F
:10040000012712E042E000270FE0284FB84201D157
:1004100002270AE0264FB84201D1032705E0254F05
:10042000B84201D1042700E0072707FA08F737434D
:10043000C9F80870DAF800605746D1F8048096438E
:100440005FEAC83800D516433E60DBF800605F46BF
:10045000D1F8048096435FEA883800D516433E60A1
:10046000DEF800607746D1F8048096435FEAC8283A
:1004700000D516433E60094F0C373E68D1F8048022
:1004800096435FEA882800D516433E605B1C0A68E5
:1004900032FA03F67FF442AFBDE8FC8F000401405E
:1004A000001002400000014000040048000800481D
:1004B000000C0048001000480148806870470000A8
:1004C0001C00002002488168027811448160704756
:1004D0001C00002010B50024032000F073F8002059
:1004E00000F008F808B1012401E000F025F82046EA
:1004F00010BD000070B50E4E05460024307898B14E
:100500004FF47A71B1FBF0F00A490968B1FBF0F0E1
:1005100000F0BCFD40B9102D06D200222946501E25
:1005200000F030F8756000E00124204670BD000046
:100530001C000020280000200A4882B0016E41F013
:1005400001010166016E01F001010091816D41F030
:1005500080518165806D00F080500090052002B0D0
:1005600000F030B800100240002809DB00F01F0244
:10057000012191404009800000F1E020C0F8001105
:1005800070470000F0B40E4B1B680C46C3F3022307
:10059000C3F10705042D00D90425191D072901D22F
:1005A000002300E0DB1E012606FA05F1491E21406A
:1005B00099409E40761E16403143F0BC01F0A5BB29
:1005C0000CED00E0064900F0070208684FF6FF0353
:1005D000184040EA0220034A1043086070470000B8
:1005E0000CED00E00000FA051649B0F5007F086840
:1005F000C0F3412009D0022805D0086820F4C0606B
:1006000040F480600860002070470128FBD0086833
:1006100020F4C06040F4007008600B48322200688B
:1006200050430A4AB0FBF2F0401C00E0401E4A6909
:10063000520501D50028F9D148694005E3D50320CA
:1006400070470000007000402800002040420F006A
:100650000248006800F4C06070470000007000406D
:100660002DE9F84F044600270088A84D3E460005B6
:1006700015D5606C60B1B0F5000F04D0B0F5400F37
:100680002BD001270AE0E86840F48030E86024E0DD
:100690000021201D00F06EFF07001ED03E4620689E
:1006A00080033AD5A86D4FF00008C00009D4A86DAA
:1006B00040F08050A865A86D4FF0010800F0805010
:1006C0000090DFF84CA2DAF8001041F48071CAF80B
:1006D0000010FFF7F1FE814610E0D5F88800616C4C
:1006E00020F440000843C5F88800D8E7FFF7E4FE8F
:1006F000A0EB0900022801D9032705E0DAF8000081
:10070000C005F3D5002F7DD04FEA0706B8F1000FE2
:1007100003D0A86D20F08050A8652078C00707D0CE
:10072000D5F88800216A20F003000843C5F8880046
:100730002078800707D5D5F88800616A20F00C0082
:100740000843C5F888002078400707D5D5F8880009
:10075000A16A20F030000843C5F8880020788006A0
:1007600007D5D5F88800E16A20F440600843C5F851
:1007700088002088800507D5D5F88800E16B20F433
:1007800040200843C5F888002088400507D5D5F8E3
:100790008800216C20F440100843C5F888002078B8
:1007A000400607D5D5F88800216B20F44050084357
:1007B000C5F888002078000607D5D5F88800616B59
:1007C00020F440400843C5F888002088C00507D5BC
:1007D000D5F88800A16B20F440300843C5F88800A4
:1007E00020684FF0006700034FF0806850D5D5F8BF
:1007F0008800A16C20F040600843C5F88800A06C18
:10080000B84200E005E03BD1E86840F48010E860C1
:100810003EE0D5F8900010F4407014D0A16D8142F4
:1008200011D0D5F89000D5F8901020F4407041F424
:100830008031C5F89010D5F8901021F48031C5F8BA
:100840009010C5F89000C00711D0FFF735FE07469D
:1008500041F2883907E000BFFFF72EFEC11B494572
:1008600001D9032652E7D5F890008007F4D5D5F8D2
:100870009000A16D20F440700843C5F8900045E752
:10088000404505D10121201D00F074FE00B106464F
:100890002068400317D5D5F88800E16C20F040604F
:1008A0000843C5F88800E06CB84204D1E86840F419
:1008B0008010E86007E0404505D10121201D00F0CF
:1008C00059FE00B106462088400411D5D5F88800AD
:1008D000216D20F040500843C5F88800206DB0F12C
:1008E000805F05D10221201D00F044FE00B10646C4
:1008F0002088000406D555F8880F616D20F08040EF
:10090000084328603046BDE8F88F00000010024020
:10091000007000402DE9F0470F46050058D0404ECA
:10092000306800F00700B84209D2306820F00700B4
:1009300038433060306800F00700B84248D128786A
:10094000384CC0072CD06868032811D0022812D078
:10095000216898B1490500293ADAA16821F003011C
:100960000143A160FFF7A8FD804641F2883910E0FD
:1009700021688901EFE721688903ECE78907EAE745
:10098000FFF79AFDA0EB0801494502D90320BDE815
:10099000F087A068696800F00C00B0EB810FEFD120
:1009A0002878800705D5A068A96820F0F0000843E2
:1009B000A060306800F00700B8420BD9306820F022
:1009C000070038433060306800F00700B84201D0BB
:1009D0000120DCE72878400705D5A068E96820F405
:1009E000E0600843A0602878000706D5A068296960
:1009F00020F4605040EAC100A06000F03FF8A16818
:100A0000094AC1F30311515C01F01F01C8400749B5
:100A1000086007480068BDE8F047FFF76BBD0000BD
:100A20000020024000100240781D0008280000202D
:100A3000200000200548064900688968054AC1F37E
:100A40000221515C01F01F01C840704728000020BE
:100A500000100240B81D0008054806490068896872
:100A6000054AC1F3C221515C01F01F01C840704723
:100A70002800002000100240B81D000870B525496C
:100A8000002318468A68CC6812F00C0204F00306B2
:100A9000214C4FEA640509D00C2A05D0042A32D033
:100AA000082A00D1284670BD012E10D10B681B0703
:100AB00004D4D1F89430C3F3032302E00B68C3F3EA
:100AC0000313164E56F82330DAB10C2AEBD1C8685E
:100AD00000F00300022818D0032818D01846CA686E
:100AE000CB68C2F30212C3F306234343521CB3FB89
:100AF000F2F2C868C0F34160401C4000B2FBF0F065
:100B000070BD184670BD204670BD2046E7E72846F8
:100B1000E5E70000001002400024F400881D0008F2
:100B20002DE9F84304006FD0FE4DA86800F00C06D4
:100B3000E86800F003072078C00664D576B10C2E73
:100B400001D1012F0AD0A069002828687AD040F08E
:100B500001002860FFF7B0FC80465DE02868800750
:100B600002D5A0690028DED0216A2868000703D5D5
:100B7000286800F0F00004E0D5F89400F02202EAC2
:100B80001010814216D9084600F08AFD00283BD19A
:100B9000286840F0080028602868216A20F0F000EA
:100BA000084328606868E16920F47F4040EA01203A
:100BB000686016E0286840F0080028602868216A0C
:100BC00020F0F000084328606868E16920F47F4065
:100BD00040EA0120686026B9206A00F061FD002823
:100BE000D5D1FFF74BFFA968CF4AC1F30311515C80
:100BF00001F01F01C840CD490860CD480068FFF7EB
:100C000079FC00287ED12EE0CAE000BFFFF754FC3B
:100C1000A0EB0800022876D828688007F6D5286857
:100C200040F0080028602868216A20F0F00008439E
:100C300028606868E16920F47F4040EA012068602C
:100C400011E0FFE720F001002860FFF735FC804647
:100C500006E000BFFFF730FCA0EB08000228DAD85E
:100C600028688007F6D42078C00740D0082E18D016
:100C70000C2E01D1032F14D06068B0F5803F17D03F
:100C8000B0F5A02F286817D020F48030286028689D
:100C900020F4802028606068E0B1FFF70DFC8046FA
:100CA00014E02868800322D56068002878D01EE010
:100CB000286840F48030EDE740F480202860F7E7B2
:100CC000FFF7FAFBA0EB08006428A4D8286880038B
:100CD000F6D50CE0FFF7F0FB804605E0FFF7ECFBF4
:100CE000A0EB0800642896D828688003F6D4207802
:100CF00080073BD5042E11D00C2E01D1022F0DD030
:100D0000E06801E0B6E1FFE0002828681ED040F46A
:100D100080702860FFF7D0FB07460CE0286840058C
:100D20000CD5E0680028C1D008E000BFFFF7C4FB85
:100D3000C01B022893D828684005F7D56868217C35
:100D400020F0FE4040EA016068600FE020F480700F
:100D50002860FFF7B1FB074605E000BFFFF7ACFBDB
:100D6000C01B0228B1D828684005F7D420780007B6
:100D700029D560690028D5F8940012D040F0010010
:100D8000C5F89400FFF798FB074604E0FFF794FBD3
:100D9000C01B022899D8D5F894008007F6D512E038
:100DA0002BE120F00100C5F89400FFF785FB074612
:100DB00005E000BFFFF780FBC01B022885D8D5F8EF
:100DC00094008007F6D42078400766D5A86D0027E8
:100DD000C00008D4A86D40F08050A865A86D012718
:100DE00000F08050009053480168C90512D4016892
:100DF000814641F480710160FFF75EFB804605E0AB
:100E0000FFF75AFBA0EB080002287DD8D9F80000B4
:100E1000C005F5D5A068012816D00528D5F89000A2
:100E200017D020F00100C5F89000D5F8900020F010
:100E3000040000BFC5F89000A06841F28839C0B135
:100E4000FFF73AFB80460FE0D5F8900040F0010034
:100E5000F0E740F00400C5F89000F5E7FFF72CFB41
:100E6000A0EB080149454FD8D5F890008007F5D58B
:100E70000EE0FFF721FB804606E000BFFFF71CFBFA
:100E8000A0EB080149453FD8D5F890008007F5D47C
:100E90001FB1A86D20F08050A8652078800628D565
:100EA000606A0028D5F8980012D040F00100C5F81B
:100EB0009800FFF701FB074605E000BFFFF7FCFACB
:100EC000C01B022820D8D5F898008007F6D510E07E
:100ED00020F00100C5F89800FFF7EEFA074604E09D
:100EE000FFF7EAFAC01B02280ED8D5F89800800751
:100EF000F6D4A06AA8B1022824D00C2E7DD0286890
:100F000020F08070286000E0B3E02868000103D47E
:100F1000E86820F00300E860E86807490840E860F6
:100F20000CE09FE000100240781D0008280000201F
:100F30002000002000700040FFFFEEFEFFF7BCFA2B
:100F4000044699E0E868E26A00F00301914226D184
:100F5000216B00F070020901103991421FD1626BC0
:100F600000F4FE41B1EB022F19D194F8382000F0C3
:100F70007841B1EBC26F12D1A18F00F4C0024908D1
:100F80004905A1F50011914209D194F8401000F0F3
:100F9000C06049084906A1F1007181424BD00C2E76
:100FA0006FD0286840016CD4286820F080702860D9
:100FB000FFF782FA064604E0FFF77EFA801B02285C
:100FC00057D828688001F7D4F4E90B016FF00F02BD
:100FD00002EB01110843218A5204490802EB4151F6
:100FE000A26841EA02210843217D4FF07E42490870
:100FF00002EB41610843217B00E042E040EAC1602E
:10100000E968214A11400843E860286840F0807090
:101010002860E86840F08070E860FFF74DFA044609
:1010200005E000BFFFF748FA001B022821D8286816
:101030008001F7D523E02868800120D4286840F09B
:1010400080702860E86840F08070E860FFF734FA4C
:10105000044604E0FFF730FA001B022809D828688C
:101060008001F7D50BE000BFFFF726FA001B02282E
:1010700002D90320BDE8F88328688001F4D4002059
:10108000F8E70120F6E700008C809D0110B5401EB6
:10109000B0F1807F01D3012010BD4FF0E0246061EA
:1010A0000F21601700F031FE0020A06107202061B1
:1010B000002010BD704770472DE9F04102680446DA
:1010C000D0691168936840F60F0528424FF000057B
:1010D00005D186067BD58E0679D5216E88E04D4FE9
:1010E00003F001060F40374371D0C70707D0CF0583
:1010F00005D501271762E26F42F00102E26782071D
:1011000008D5DA0706D0276802223A62E26F42F079
:101110000402E267420708D5DA0706D023680422F2
:101120001A62E26F42F00202E26702070AD501F09A
:101130002002324306D0236808221A62E26F42F08E
:101140000802E267020509D54A0107D523684FF472
:1011500000621A62E26F42F02002E267E26F002A48
:101160002ED0800605D5880603D5216E09B120460C
:101170008847E06F21688968490602D410F0280F7B
:1011800020D0204600F0BEFB20688168490614D5B7
:10119000816821F040018160E06E70B11E49816379
:1011A000E06EFFF786F800280AD0E06E816B00E061
:1011B0002046BDE8F041084709E02046FFF77BFFE5
:1011C000BDE8F0812046FFF776FFE567F8E7C60245
:1011D00009D55B0207D54FF4801010622046BDE8A8
:1011E000F041FFF767BF030605D50B0603D5616E17
:1011F0000029DDD1E4E74006E2D54806E0D51168D4
:10120000204621F04001116020216167656600F0F1
:101210006FF9D5E720010004F118000810B50400AB
:1012200002D0606F10B107E0012010BD002084F8EB
:101230007000204600F026F82420606720680168CE
:1012400021F001010160204600F0C6FB0128ECD02E
:10125000606A10B1204600F0BBFA2068416821F4B2
:10126000904141602068816821F02A0181602068F6
:10127000016841F0010101602046BDE8104000F026
:101280000BBB000010B586B0044614216846FEF77B
:10129000D1FF17492068884228D11648016E41F4D1
:1012A00080410166016E01F480410591C16C41F0FD
:1012B0000101C164C06C694600F0010005904FF463
:1012C000C060009002200190002002900320039053
:1012D000072004904FF09040FFF712F800220321FE
:1012E0002520FFF74FF92520FFF73EF906B010BD86
:1012F000003801400010024030B5836F202B4BD1E5
:10130000B1B1AAB190F87030012B45D0012380F81B
:1013100070304165A0F85820A0F85A2000210166DD
:101320001D038268FF23AA4207D1026912B125E09A
:10133000012030BD40F2FF1226E07F24E2B1B2F17D
:10134000805F1ED0A0F85C10C1672222826702680D
:10135000936843F0010393608268AA4201D1026955
:10136000C2B10E4A026680F870100068016841F44C
:1013700090710160002030BD026942B9A0F85C3074
:10138000E2E702691AB13F22A0F85C20DCE7A0F88E
:101390005C40D9E7024AE5E7022030BD7D1900082C
:1013A0002319000810B504460068084988420CD18A
:1013B000002301220649204600F00CF82046BDE833
:1013C000104001220249FFF797BF10BD00380140CD
:1013D000000000202DE9F8430446406F1F461646E2
:1013E0000D4620284FD1CDB1C6B194F87000012828
:1013F00049D0012084F870004FF00008C4F87C80C8
:1014000021206067FFF758F8A4F850608146A4F8DF
:101410005260A068B0F5805F03D004E00120BDE811
:10142000F883206928B12E465FF0000584F87080AB
:1014300010E00026FAE78021204600F00DFCB8B944
:10144000C6B116F8010B21680885B4F85200401E99
:10145000A4F85200B4F852004B464FF00002009737
:101460000028E8D14FF04001204600F0F5FB30B1F4
:101470000320D4E735F8020BC0F30800E3E720208F
:1014800060670020CBE70220C9E70000436F202BF4
:1014900028D1B1B1AAB190F87030012B22D001232C
:1014A00080F87030C164A0F85020A0F852200021CC
:1014B0004166C167212242678268B2F5805F02D02F
:1014C00003E001207047026952B1074A426680F882
:1014D00070100068016841F08001016000207047D1
:1014E000024AF3E7022070471D1C0008DD1B0008BC
:1014F0007047FEE70D4808B5C16C41F00401C164B6
:10150000C16C01F004010091C16C41F08001C16423
:10151000C16C01F080010091C16C41F00101C16416
:10152000C06C00F00100009008BD000000100240F7
:101530000D4810B50B4901604FF4E13141600021C5
:1015400081600C22C160C0E904128161C161016245
:101550004162FFF763FE002803D0BDE81040FEF7AC
:10156000A7BE10BD003801402C000020FEE77047E8
:10157000704700002DE9F041444C05468846E0687C
:101580000026810728680DD0E16801F0030181423F
:1015900016D1A8B1E0686968C0F30210401C884207
:1015A0000ED120E0012804D0022805D0032807D15D
:1015B00008E02168890701E021684905002907DB67
:1015C00001265FE02168890302D421684903F5E719
:1015D000E1686A686FF00F0321F0730103EB0212F8
:1015E00011430143E160206820F080602060FEF735
:1015F00063FF074605E000BFFEF75EFFC01B022841
:1016000037D820680001F7D4B8F1000F18D0B8F12E
:10161000010F1DD0287D4FF07E41400801EB406056
:10162000A96840EA01202169194A11400843206154
:10163000206840F080602060FEF73EFF07461AE019
:10164000A868297B000240EAC1602169114AECE7E1
:10165000288A1149400801EB4050A96840EA01205E
:1016600021690E4AE1E700BFFEF726FFC01B0228F2
:1016700001D9032606E020680001F5D52069A96993
:10168000084320613046BDE8F081000000100240B0
:10169000FF80FFF9FF80FF070000E0FFFF809FFF52
:1016A000F8B51C4D06460024A86DC00002D5FEF713
:1016B000CFFF0DE0A86D40F08050A865A86D00F048
:1016C00080500090FEF7C4FFA96D21F08051A965FC
:1016D000B0F5007F04D0802E07D94FF003040AE054
:1016E000802E08D9A02E01D804E001D1022402E006
:1016F000702E00D101240848016821F00701214320
:101700000160006800F00700A04201D00120F8BD90
:101710000020F8BD00100240002002407047FEF794
:10172000D1BE30B5ADB044216846FEF783FD14212B
:1017300028A8FEF77FFD5C2111A8FEF77BFD01259F
:101740002804CDE90050022003241421CDE90C51D6
:10175000CDE90A040721CDE90E1010906846FFF785
:10176000DFF90F20CDE9280400242A942B940421CA
:1017700028A82C94FFF7CEF811A811951994FEF71C
:101780006FFF6802FEF730FF2DB030BD0D480168D5
:1017900041F4700101600C48016841F001010160F1
:1017A000002181600268094B1A4002608214C26005
:1017B000026822F48022026081610249C0038039FC
:1017C0000860704788ED00E000100240FFFFF6EA75
:1017D00090F82410C90706D001684A68836A22F489
:1017E00000321A434A6090F82410890706D5016830
:1017F0004A68C36A22F480321A434A6090F824107F
:10180000490706D501684A68036B22F480221A430F
:101810004A6090F82410090706D501684A68436BAE
:1018200022F400421A434A6090F82410C90606D5F3
:1018300001688A68836B22F480521A438A6090F8A8
:101840002410890606D501688A68C36B22F4005209
:101850001A438A6090F82410490611D501684A6835
:10186000036C22F480121A434A60016CB1F5801FA8
:1018700006D101684A68436C22F4C0021A434A60E8
:1018800090F82410090606D501684A68806C22F495
:10189000002202434A607047F8B500260446C66736
:1018A000FEF70AFE0546206800686FF07E470007D5
:1018B00008D52B4600224FF400112046009700F077
:1018C000CBF960B92068006840070AD52B46002292
:1018D0004FF480012046009700F0BEF908B10320C4
:1018E000F8BD20206067A06784F870600020F8BD14
:1018F00010B5806A0021A0F85A10A0F85210FFF726
:10190000DAFB10BD01680A6822F490720A6001686F
:101910008A6822F001028A60202181670021016625
:10192000704710B5B0F85C20836F0168222B04D09B
:10193000088B40F00800088310BD898C436D11406E
:101940001980416D891C4165B0F85A10491EA0F8F4
:101950005A10B0F85A100029EED101680A6822F432
:1019600090720A6001688A6822F001028A60202170
:10197000816700210166FFF715FD10BD10B5B0F8B5
:101980005C20836F0168222B04D0088B40F0080094
:10199000088310BD898C1140426D1170416D491C46
:1019A0004165B0F85A10491EA0F85A10B0F85A1004
:1019B0000029EED101680A6822F490720A60016879
:1019C0008A6822F001028A60202181670021016675
:1019D000FFF7E8FC10BD00002DE9F0410446016866
:1019E00080682269E3691043626900251A43104345
:1019F000724F0A68724B1A4002430A6020684168BD
:101A0000E26821F44051114341602168A069B94264
:101A100001D0226A10438A6822F4306202438A604D
:101A20006849236868488B420DD1D0F8880010F0CF
:101A3000030006D0012847D0022843D0032830D124
:101A400044E001212EE061498B420BD1D0F888009F
:101A500010F00C0034D0042836D0082832D00C28DE
:101A60001FD133E05A498B420BD1D0F8880010F0D7
:101A7000300025D0102827D0202823D0302810D19E
:101A800024E0BB420DD1D0F8880010F4406017D09C
:101A9000B0F5806F18D0B0F5006F13D0B0F5406F7F
:101AA00014D010214B4A00264FF40040BB422FD1E6
:101AB00071B102290FD004290FD0082975D10FE088
:101AC0000021EFE70221EDE70421EBE70821E9E738
:101AD000FEF7B0FF03E0104602E0FEF7CFFFE0B3F1
:101AE000626802EB420181425FD8B0EB023F5CD8F2
:101AF000010E000273084FEA3207C0195941002352
:101B0000FEF760FB344AA0F5407191424FD94CE09A
:101B1000E3694FF6EF77834229D1092945D2DFE8FF
:101B200001F005080B440D4444441000FEF782FF09
:101B300006E0FEF791FF03E0104602E0FEF79EFF8D
:101B400058B14100606801EB5001B1FBF0F080B288
:101B5000A0F11001B94228D800E02AE04FF6F07158
:101B60000140C0F3420001432068C16021E009291F
:101B70001BD2DFE801F005080B1A0D1A1A1A100023
:101B8000FEF758FF06E0FEF767FF03E0104602E0AD
:101B9000FEF774FF68B1616800EB5100B0FBF1F033
:101BA00080B2A0F11001B94201D9012501E02168FC
:101BB000C860266628466666BDE8F0810080004061
:101BC000F369FFEF0038014000100240004400407C
:101BD000004800400024F400FFFC0F00416F212961
:101BE00010D1B0F8521071B1C16C02680988C1F30C
:101BF00008011185C16C891CC164B0F85210491EDE
:101C0000A0F85210704701680A6822F080020A604A
:101C10000068016841F0400101607047416F21296F
:101C20000ED1B0F8521061B1C16C0268097811850B
:101C3000C16C491CC164B0F85210491EA0F8521082
:101C4000704701680A6822F080020A600068016833
:101C500041F04001016070472DE9F0479A46174670
:101C60000E4604464FF000094FF02008089D39E069
:101C7000681C37D0FEF720FCA0EB0A00A84222D84F
:101C80000DB32068016849072CD5C069C043000521
:101C900028D421684FF4006008622068016821F4AC
:101CA000D07101602068816821F001018160C4F871
:101CB0007480C4F87880C4F87C8000BF84F8709089
:101CC0000320BDE8F0872068016821F4D07101602D
:101CD0002068816821F001018160C4F87480C4F833
:101CE0007880EBE72068C06936EA000004D0002065
:101CF000B842BDD00020E4E70120F9E70148FFF732
:101D0000DBB900002C000020FEE70907090E0028BF
:101D100004DB00F1E02080F80014704700F00F00B1
:101D200000F1E02080F8141D704702E008C8121F7F
:101D300008C1002AFAD170477047002001E001C1B4
:101D4000121F002AFBD17047FEF7C4FBFFF7E9FC26
:101D5000FFF7D0FBFFF7ECFB012205490548FFF731
:101D6000CBFA03491822491C0248FFF78FFBFEE714
:101D7000000000202C0000200000000000000000F7
:101D80000102030406070809A0860100400D0300B4
:101D9000801A060000350C0040420F0080841E00AF
:101DA00000093D0000127A000024F40000366E01A4
:101DB0000048E801006CDC0200000000010203049E
:101DC000E01D0008000000202C0000002A1D000873
:101DD0000C1E00082C000020840400003A1D00089E
:101DE0000055534152543120495251206973207299
:101DF000656164792E2E2E0A0000000001000000AB
:0C1E0000100000000000000000093D0080
:040000050800018D61
:00000001FF
